{"abi":[{"type":"constructor","inputs":[{"name":"eas","type":"address","internalType":"contract IEAS"},{"name":"name","type":"string","internalType":"string"},{"name":"_attester","type":"address","internalType":"address"}],"stateMutability":"nonpayable"},{"type":"function","name":"attestByDelegation","inputs":[{"name":"delegatedRequest","type":"tuple","internalType":"struct DelegatedProxyAttestationRequest","components":[{"name":"schema","type":"bytes32","internalType":"bytes32"},{"name":"data","type":"tuple","internalType":"struct AttestationRequestData","components":[{"name":"recipient","type":"address","internalType":"address"},{"name":"expirationTime","type":"uint64","internalType":"uint64"},{"name":"revocable","type":"bool","internalType":"bool"},{"name":"refUID","type":"bytes32","internalType":"bytes32"},{"name":"data","type":"bytes","internalType":"bytes"},{"name":"value","type":"uint256","internalType":"uint256"}]},{"name":"signature","type":"tuple","internalType":"struct Signature","components":[{"name":"v","type":"uint8","internalType":"uint8"},{"name":"r","type":"bytes32","internalType":"bytes32"},{"name":"s","type":"bytes32","internalType":"bytes32"}]},{"name":"attester","type":"address","internalType":"address"},{"name":"deadline","type":"uint64","internalType":"uint64"}]}],"outputs":[{"name":"","type":"bytes32","internalType":"bytes32"}],"stateMutability":"payable"},{"type":"function","name":"attestationIdx","inputs":[{"name":"","type":"bytes32","internalType":"bytes32"}],"outputs":[{"name":"","type":"uint256","internalType":"uint256"}],"stateMutability":"view"},{"type":"function","name":"attestations","inputs":[{"name":"","type":"uint256","internalType":"uint256"}],"outputs":[{"name":"attestationId","type":"bytes32","internalType":"bytes32"},{"name":"isRevoked","type":"bool","internalType":"bool"}],"stateMutability":"view"},{"type":"function","name":"attester","inputs":[],"outputs":[{"name":"","type":"address","internalType":"address"}],"stateMutability":"view"},{"type":"function","name":"eip712Domain","inputs":[],"outputs":[{"name":"fields","type":"bytes1","internalType":"bytes1"},{"name":"name","type":"string","internalType":"string"},{"name":"version","type":"string","internalType":"string"},{"name":"chainId","type":"uint256","internalType":"uint256"},{"name":"verifyingContract","type":"address","internalType":"address"},{"name":"salt","type":"bytes32","internalType":"bytes32"},{"name":"extensions","type":"uint256[]","internalType":"uint256[]"}],"stateMutability":"view"},{"type":"function","name":"enableSchema","inputs":[{"name":"schemaId","type":"bytes32","internalType":"bytes32"},{"name":"enabled","type":"bool","internalType":"bool"}],"outputs":[],"stateMutability":"nonpayable"},{"type":"function","name":"enabledSchemas","inputs":[{"name":"","type":"bytes32","internalType":"bytes32"}],"outputs":[{"name":"","type":"bool","internalType":"bool"}],"stateMutability":"view"},{"type":"function","name":"getAttestTypeHash","inputs":[],"outputs":[{"name":"","type":"bytes32","internalType":"bytes32"}],"stateMutability":"pure"},{"type":"function","name":"getAttester","inputs":[{"name":"uid","type":"bytes32","internalType":"bytes32"}],"outputs":[{"name":"","type":"address","internalType":"address"}],"stateMutability":"view"},{"type":"function","name":"getDomainSeparator","inputs":[],"outputs":[{"name":"","type":"bytes32","internalType":"bytes32"}],"stateMutability":"view"},{"type":"function","name":"getEAS","inputs":[],"outputs":[{"name":"","type":"address","internalType":"contract IEAS"}],"stateMutability":"view"},{"type":"function","name":"getName","inputs":[],"outputs":[{"name":"","type":"string","internalType":"string"}],"stateMutability":"view"},{"type":"function","name":"getRevokeTypeHash","inputs":[],"outputs":[{"name":"","type":"bytes32","internalType":"bytes32"}],"stateMutability":"pure"},{"type":"function","name":"multiAttestByDelegation","inputs":[{"name":"multiDelegatedRequests","type":"tuple[]","internalType":"struct MultiDelegatedProxyAttestationRequest[]","components":[{"name":"schema","type":"bytes32","internalType":"bytes32"},{"name":"data","type":"tuple[]","internalType":"struct AttestationRequestData[]","components":[{"name":"recipient","type":"address","internalType":"address"},{"name":"expirationTime","type":"uint64","internalType":"uint64"},{"name":"revocable","type":"bool","internalType":"bool"},{"name":"refUID","type":"bytes32","internalType":"bytes32"},{"name":"data","type":"bytes","internalType":"bytes"},{"name":"value","type":"uint256","internalType":"uint256"}]},{"name":"signatures","type":"tuple[]","internalType":"struct Signature[]","components":[{"name":"v","type":"uint8","internalType":"uint8"},{"name":"r","type":"bytes32","internalType":"bytes32"},{"name":"s","type":"bytes32","internalType":"bytes32"}]},{"name":"attester","type":"address","internalType":"address"},{"name":"deadline","type":"uint64","internalType":"uint64"}]}],"outputs":[{"name":"","type":"bytes32[]","internalType":"bytes32[]"}],"stateMutability":"payable"},{"type":"function","name":"multiRevokeByDelegation","inputs":[{"name":"multiDelegatedRequests","type":"tuple[]","internalType":"struct MultiDelegatedProxyRevocationRequest[]","components":[{"name":"schema","type":"bytes32","internalType":"bytes32"},{"name":"data","type":"tuple[]","internalType":"struct RevocationRequestData[]","components":[{"name":"uid","type":"bytes32","internalType":"bytes32"},{"name":"value","type":"uint256","internalType":"uint256"}]},{"name":"signatures","type":"tuple[]","internalType":"struct Signature[]","components":[{"name":"v","type":"uint8","internalType":"uint8"},{"name":"r","type":"bytes32","internalType":"bytes32"},{"name":"s","type":"bytes32","internalType":"bytes32"}]},{"name":"revoker","type":"address","internalType":"address"},{"name":"deadline","type":"uint64","internalType":"uint64"}]}],"outputs":[],"stateMutability":"payable"},{"type":"function","name":"owner","inputs":[],"outputs":[{"name":"","type":"address","internalType":"address"}],"stateMutability":"view"},{"type":"function","name":"renounceOwnership","inputs":[],"outputs":[],"stateMutability":"nonpayable"},{"type":"function","name":"revokeByDelegation","inputs":[{"name":"delegatedRequest","type":"tuple","internalType":"struct DelegatedProxyRevocationRequest","components":[{"name":"schema","type":"bytes32","internalType":"bytes32"},{"name":"data","type":"tuple","internalType":"struct RevocationRequestData","components":[{"name":"uid","type":"bytes32","internalType":"bytes32"},{"name":"value","type":"uint256","internalType":"uint256"}]},{"name":"signature","type":"tuple","internalType":"struct Signature","components":[{"name":"v","type":"uint8","internalType":"uint8"},{"name":"r","type":"bytes32","internalType":"bytes32"},{"name":"s","type":"bytes32","internalType":"bytes32"}]},{"name":"revoker","type":"address","internalType":"address"},{"name":"deadline","type":"uint64","internalType":"uint64"}]}],"outputs":[],"stateMutability":"payable"},{"type":"function","name":"transferOwnership","inputs":[{"name":"newOwner","type":"address","internalType":"address"}],"outputs":[],"stateMutability":"nonpayable"},{"type":"function","name":"updateAttester","inputs":[{"name":"_attester","type":"address","internalType":"address"}],"outputs":[],"stateMutability":"nonpayable"},{"type":"function","name":"userAttestations","inputs":[{"name":"","type":"address","internalType":"address"},{"name":"","type":"bytes32","internalType":"bytes32"},{"name":"","type":"uint256","internalType":"uint256"}],"outputs":[{"name":"","type":"uint256","internalType":"uint256"}],"stateMutability":"view"},{"type":"function","name":"userAuthentication","inputs":[{"name":"user","type":"address","internalType":"address"},{"name":"schema","type":"bytes32","internalType":"bytes32"},{"name":"idx","type":"uint256","internalType":"uint256"}],"outputs":[{"name":"","type":"tuple","internalType":"struct PassportEIP712Proxy.AttestationRecord","components":[{"name":"attestationId","type":"bytes32","internalType":"bytes32"},{"name":"isRevoked","type":"bool","internalType":"bool"}]}],"stateMutability":"view"},{"type":"function","name":"userAuthenticationCount","inputs":[{"name":"user","type":"address","internalType":"address"},{"name":"schema","type":"bytes32","internalType":"bytes32"}],"outputs":[{"name":"","type":"uint256","internalType":"uint256"}],"stateMutability":"view"},{"type":"function","name":"version","inputs":[],"outputs":[{"name":"","type":"string","internalType":"string"}],"stateMutability":"view"},{"type":"event","name":"AllowedSchemaUpdated","inputs":[{"name":"schemaId","type":"bytes32","indexed":true,"internalType":"bytes32"},{"name":"enabled","type":"bool","indexed":false,"internalType":"bool"}],"anonymous":false},{"type":"event","name":"AttesterUpdated","inputs":[{"name":"attester","type":"address","indexed":true,"internalType":"address"}],"anonymous":false},{"type":"event","name":"EIP712DomainChanged","inputs":[],"anonymous":false},{"type":"event","name":"OwnershipTransferred","inputs":[{"name":"previousOwner","type":"address","indexed":true,"internalType":"address"},{"name":"newOwner","type":"address","indexed":true,"internalType":"address"}],"anonymous":false},{"type":"error","name":"AccessDenied","inputs":[]},{"type":"error","name":"DeadlineExpired","inputs":[]},{"type":"error","name":"Disabled","inputs":[]},{"type":"error","name":"DisabledSchema","inputs":[]},{"type":"error","name":"InvalidEAS","inputs":[]},{"type":"error","name":"InvalidLength","inputs":[]},{"type":"error","name":"InvalidShortString","inputs":[]},{"type":"error","name":"InvalidSignature","inputs":[]},{"type":"error","name":"NotFound","inputs":[]},{"type":"error","name":"StringTooLong","inputs":[{"name":"str","type":"string","internalType":"string"}]},{"type":"error","name":"UsedSignature","inputs":[]}],"bytecode":{"object":"0x6101e06040523480156200001257600080fd5b50604051620034d6380380620034d68339810160408190526200003591620002ee565b6040805180820190915260058152640312e332e360dc1b60208201526001608052600360a052600060c08190528491849182919062000076908390620001ac565b6101805262000087816001620001ac565b6101a052815160208084019190912061014052815190820120610160524661010052620001186101405161016051604080517f8b73c3c69bb8fe3d512ecc4cf759cc79239f7b179b0ffacaa9a75d522b39400f60208201529081019290925260608201524660808201523060a082015260009060c00160405160208183030381529060405280519060200120905090565b60e052505030610120526001600160a01b0382166200014a576040516341bc07ff60e11b815260040160405180910390fd5b6001600160a01b0382166101c05260026200016682826200045f565b505050620001836200017d620001e560201b60201c565b620001e9565b600680546001600160a01b0319166001600160a01b039290921691909117905550620005859050565b6000602083511015620001cc57620001c4836200023b565b9050620001df565b81620001d984826200045f565b5060ff90505b92915050565b3390565b600580546001600160a01b038381166001600160a01b0319831681179093556040519116919082907f8be0079c531659141344cd1fd0a4f28419497f9722a3daafe3b4186f6b6457e090600090a35050565b600080829050601f8151111562000272578260405163305a27a960e01b81526004016200026991906200052b565b60405180910390fd5b80516200027f8262000560565b179392505050565b6001600160a01b03811681146200029d57600080fd5b50565b634e487b7160e01b600052604160045260246000fd5b60005b83811015620002d3578181015183820152602001620002b9565b50506000910152565b8051620002e98162000287565b919050565b6000806000606084860312156200030457600080fd5b8351620003118162000287565b60208501519093506001600160401b03808211156200032f57600080fd5b818601915086601f8301126200034457600080fd5b815181811115620003595762000359620002a0565b604051601f8201601f19908116603f01168101908382118183101715620003845762000384620002a0565b816040528281528960208487010111156200039e57600080fd5b620003b1836020830160208801620002b6565b8096505050505050620003c760408501620002dc565b90509250925092565b600181811c90821680620003e557607f821691505b6020821081036200040657634e487b7160e01b600052602260045260246000fd5b50919050565b601f8211156200045a57600081815260208120601f850160051c81016020861015620004355750805b601f850160051c820191505b81811015620004565782815560010162000441565b5050505b505050565b81516001600160401b038111156200047b576200047b620002a0565b62000493816200048c8454620003d0565b846200040c565b602080601f831160018114620004cb5760008415620004b25750858301515b600019600386901b1c1916600185901b17855562000456565b600085815260208120601f198616915b82811015620004fc57888601518255948401946001909101908401620004db565b50858210156200051b5787850151600019600388901b60f8161c191681555b5050505050600190811b01905550565b60208152600082518060208401526200054c816040850160208701620002b6565b601f01601f19169190910160400192915050565b80516020808301519190811015620004065760001960209190910360031b1b16919050565b60805160a05160c05160e05161010051610120516101405161016051610180516101a0516101c051612eae62000628600039600081816102c301528181611033015281816111160152818161161201526117ac015260006109870152600061095d01526000611948015260006119200152600061187b015260006118a5015260006118cf015260006108c60152600061089d015260006108740152612eae6000f3fe60806040526004361061014b5760003560e01c806384b0196e116100b6578063a6d4dbc71161006f578063a6d4dbc714610402578063b83010d314610415578063bcac508214610448578063ed24911d14610475578063f2fde38b1461048a578063f7aafb58146104aa57600080fd5b806384b0196e1461031c5780638da5cb5b14610344578063924ee50f146103625780639541152514610382578063966a06be146103a257806399f46851146103c257600080fd5b8063413d288c11610108578063413d288c1461025f57806347b0c3b31461027f57806354fd4d501461029f57806365c40b9c146102b4578063715018a6146102e75780637b5ddab2146102fc57600080fd5b806301daf26b146101505780630eabf6601461018a57806310d736d51461019f57806312b11a17146101ed57806317d7de7c1461022a5780633c0427151461024c575b600080fd5b34801561015c57600080fd5b5061017061016b36600461212c565b6104e7565b604080519283529015156020830152015b60405180910390f35b61019d610198366004612190565b610518565b005b3480156101ab57600080fd5b506101d56101ba36600461212c565b6000908152600360205260409020546001600160a01b031690565b6040516001600160a01b039091168152602001610181565b3480156101f957600080fd5b507fea02ffba7dcb45f6fc649714d23f315eef12e3b27f9a7735d8d8bf41eb2b1af15b604051908152602001610181565b34801561023657600080fd5b5061023f61065c565b6040516101819190612221565b61021c61025a36600461223b565b6106ee565b34801561026b57600080fd5b5061019d61027a366004612291565b61081b565b34801561028b57600080fd5b506006546101d5906001600160a01b031681565b3480156102ab57600080fd5b5061023f61086d565b3480156102c057600080fd5b507f00000000000000000000000000000000000000000000000000000000000000006101d5565b3480156102f357600080fd5b5061019d610910565b34801561030857600080fd5b5061021c6103173660046122ac565b610924565b34801561032857600080fd5b5061033161094f565b60405161018197969594939291906122d6565b34801561035057600080fd5b506005546001600160a01b03166101d5565b34801561036e57600080fd5b5061019d61037d36600461237c565b6109d7565b610395610390366004612190565b610a36565b60405161018191906123a8565b3480156103ae57600080fd5b5061021c6103bd3660046123e0565b610c89565b3480156103ce57600080fd5b506103f26103dd36600461212c565b60076020526000908152604090205460ff1681565b6040519015158152602001610181565b61019d610410366004612413565b610cc7565b34801561042157600080fd5b507f78a69a78c1a55cdff5cbf949580b410778cd9e4d1ecbe6f06a7fa8dc2441b57d61021c565b34801561045457600080fd5b5061021c61046336600461212c565b60096020526000908152604090205481565b34801561048157600080fd5b5061021c610d33565b34801561049657600080fd5b5061019d6104a5366004612291565b610d42565b3480156104b657600080fd5b506104ca6104c53660046123e0565b610dc0565b604080518251815260209283015115159281019290925201610181565b600881815481106104f757600080fd5b60009182526020909120600290910201805460019091015490915060ff1682565b6105228282610e5b565b8060005b818110156106565761056b8484838181106105435761054361242c565b90506020028101906105559190612442565b610566906080810190606001612291565b6110a2565b600084848381811061057f5761057f61242c565b90506020028101906105919190612442565b61059f906020810190612462565b9050905060005b8181101561064c5760016008600960008989888181106105c8576105c861242c565b90506020028101906105da9190612442565b6105e8906020810190612462565b868181106105f8576105f861242c565b90506040020160000135815260200190815260200160002054815481106106215761062161242c565b600091825260209091206002909102016001908101805460ff191692151592909217909155016105a6565b5050600101610526565b50505050565b60606002805461066b906124ab565b80601f0160208091040260200160405190810160405280929190818152602001828054610697906124ab565b80156106e45780601f106106b9576101008083540402835291602001916106e4565b820191906000526020600020905b8154815290600101906020018083116106c757829003601f168201915b5050505050905090565b600061070361056660c0840160a08501612291565b61070d82356110d0565b6000610718836110ff565b60408051808201909152818152600060208201818152600880546001808201835582855294517ff3f7a9fe364faab93b216da50a3214154f22a0a2b415b23a84c8169e8b636ee360029092029182015591517ff3f7a9fe364faab93b216da50a3214154f22a0a2b415b23a84c8169e8b636ee4909201805460ff19169215159290921790915554929350916107ad91906124f5565b9050600a60006107c06020870187612508565b6107ce906020810190612291565b6001600160a01b0316815260208082019290925260409081016000908120963581529582528086208054600181018255908752828720018390558386526009909152909320929092555090565b610823611218565b600680546001600160a01b0319166001600160a01b0383169081179091556040517f2d685970da1fe08d9d7ace6f5a982ede39c817eb28d1ac4935c913c4866248ca90600090a250565b60606108987f0000000000000000000000000000000000000000000000000000000000000000611272565b6108c17f0000000000000000000000000000000000000000000000000000000000000000611272565b6108ea7f0000000000000000000000000000000000000000000000000000000000000000611272565b6040516020016108fc9392919061251e565b604051602081830303815290604052905090565b610918611218565b6109226000611304565b565b6001600160a01b0382166000908152600a602090815260408083208484529091529020545b92915050565b6000606080828080836109827f000000000000000000000000000000000000000000000000000000000000000083611356565b6109ad7f00000000000000000000000000000000000000000000000000000000000000006001611356565b60408051600080825260208201909252600f60f81b9b939a50919850469750309650945092509050565b6109df611218565b600082815260076020908152604091829020805460ff1916841515908117909155915191825283917f165fc4b081382b915487d70a081df0717e6c3a4b6d9dcd8af074d652be24e9ce910160405180910390a25050565b60606000610a448484611401565b9050826000805b82811015610c7e57610a688787838181106105435761054361242c565b610a95878783818110610a7d57610a7d61242c565b9050602002810190610a8f9190612442565b356110d0565b6000878783818110610aa957610aa961242c565b9050602002810190610abb9190612442565b610ac990602081019061258e565b9050905060005b81811015610c745760086040518060400160405280888781518110610af757610af761242c565b602090810291909101810151825260009181018290528354600180820186559483528183208451600290920201908155920151918301805460ff1916921515929092179091556008549091610b4b916124f5565b9050600a60008b8b87818110610b6357610b6361242c565b9050602002810190610b759190612442565b610b8390602081019061258e565b85818110610b9357610b9361242c565b9050602002810190610ba59190612508565b610bb3906020810190612291565b6001600160a01b03166001600160a01b0316815260200190815260200160002060008b8b87818110610be757610be761242c565b9050602002810190610bf99190612442565b35815260208082019290925260400160009081208054600181018255908252918120909101829055875182916009918a9089908110610c3a57610c3a61242c565b60200260200101518152602001908152602001600020819055508480610c5f906125d7565b95505050610c6d8160010190565b9050610ad0565b5050600101610a4b565b509195945050505050565b600a6020528260005260406000206020528160005260406000208181548110610cb157600080fd5b9060005260206000200160009250925050505481565b610cda61056660e0830160c08401612291565b610ce381611793565b60208082013560009081526009909152604090205460088054600192908110610d0e57610d0e61242c565b60009182526020909120600290910201600101805460ff191691151591909117905550565b6000610d3d61186e565b905090565b610d4a611218565b6001600160a01b038116610db45760405162461bcd60e51b815260206004820152602660248201527f4f776e61626c653a206e6577206f776e657220697320746865207a65726f206160448201526564647265737360d01b60648201526084015b60405180910390fd5b610dbd81611304565b50565b604080518082018252600080825260208083018290526001600160a01b0387168252600a815283822086835290529190912080546008919084908110610e0857610e0861242c565b906000526020600020015481548110610e2357610e2361242c565b600091825260209182902060408051808201909152600290920201805482526001015460ff1615159181019190915290509392505050565b806000816001600160401b03811115610e7657610e76612578565b604051908082528060200260200182016040528015610ebc57816020015b604080518082019091526000815260606020820152815260200190600190039081610e945790505b50905060005b8281101561101b576000858583818110610ede57610ede61242c565b9050602002810190610ef09190612442565b610ef9906127d1565b6020810151805191925090801580610f1657508260400151518114155b15610f345760405163251f56a160e21b815260040160405180910390fd5b60005b81811015610fd0576000838281518110610f5357610f5361242c565b60200260200101519050610fc76040518060a001604052808760000151815260200183815260200187604001518581518110610f9157610f9161242c565b6020026020010151815260200187606001516001600160a01b0316815260200187608001516001600160401b0316815250611999565b50600101610f37565b5060405180604001604052808460000151815260200183815250858581518110610ffc57610ffc61242c565b60200260200101819052505050506110148160010190565b9050610ec2565b50604051634cb7e9e560e01b81526001600160a01b037f00000000000000000000000000000000000000000000000000000000000000001690634cb7e9e590349061106a9085906004016128cb565b6000604051808303818588803b15801561108357600080fd5b505af1158015611097573d6000803e3d6000fd5b505050505050505050565b6006546001600160a01b03828116911614610dbd57604051634ca8886760e01b815260040160405180910390fd5b60008181526007602052604090205460ff16610dbd576040516336ea324f60e11b815260040160405180910390fd5b600061111261110d83612a61565b611b4c565b60007f00000000000000000000000000000000000000000000000000000000000000006001600160a01b031663f17325e7346040518060400160405280876000013581526020018780602001906111699190612508565b61117290612ad9565b8152506040518363ffffffff1660e01b81526004016111919190612b49565b60206040518083038185885af11580156111af573d6000803e3d6000fd5b50505050506040513d601f19601f820116820180604052508101906111d49190612b76565b90506111e660c0840160a08501612291565b600082815260036020526040902080546001600160a01b0319166001600160a01b039290921691909117905592915050565b6005546001600160a01b031633146109225760405162461bcd60e51b815260206004820181905260248201527f4f776e61626c653a2063616c6c6572206973206e6f7420746865206f776e65726044820152606401610dab565b6060600061127f83611ccb565b60010190506000816001600160401b0381111561129e5761129e612578565b6040519080825280601f01601f1916602001820160405280156112c8576020820181803683370190505b5090508181016020015b600019016f181899199a1a9b1b9c1cb0b131b232b360811b600a86061a8153600a85049450846112d257509392505050565b600580546001600160a01b038381166001600160a01b0319831681179093556040519116919082907f8be0079c531659141344cd1fd0a4f28419497f9722a3daafe3b4186f6b6457e090600090a35050565b606060ff83146113705761136983611da3565b9050610949565b81805461137c906124ab565b80601f01602080910402602001604051908101604052809291908181526020018280546113a8906124ab565b80156113f55780601f106113ca576101008083540402835291602001916113f5565b820191906000526020600020905b8154815290600101906020018083116113d857829003601f168201915b50505050509050610949565b6060816000816001600160401b0381111561141e5761141e612578565b60405190808252806020026020018201604052801561146457816020015b60408051808201909152600081526060602082015281526020019060019003908161143c5790505b50905060005b8281101561160d57368686838181106114855761148561242c565b90506020028101906114979190612442565b90503660006114a9602084018461258e565b9092509050808015806114ca57506114c46040850185612b8f565b90508114155b156114e85760405163251f56a160e21b815260040160405180910390fd5b60005b818110156115bb576115b36040518060a001604052808760000135815260200186868581811061151d5761151d61242c565b905060200281019061152f9190612508565b61153890612ad9565b815260200161154a6040890189612b8f565b8581811061155a5761155a61242c565b9050606002018036038101906115709190612bd7565b81526020016115856080890160608a01612291565b6001600160a01b031681526020016115a360a0890160808a01612bf3565b6001600160401b03169052611b4c565b6001016114eb565b506040805180820190915284358152602081016115d88486612c0e565b8152508686815181106115ed576115ed61242c565b6020026020010181905250505050506116068160010190565b905061146a565b5060007f00000000000000000000000000000000000000000000000000000000000000006001600160a01b03166344adc90e34846040518363ffffffff1660e01b815260040161165d9190612c81565b60006040518083038185885af115801561167b573d6000803e3d6000fd5b50505050506040513d6000823e601f3d908101601f191682016040526116a49190810190612d38565b90506000805b8481101561178757368888838181106116c5576116c561242c565b90506020028101906116d79190612442565b90503660006116e9602084018461258e565b90925090508060005b818110156117715761170a6080860160608701612291565b600360008a8a815181106117205761172061242c565b6020026020010151815260200190815260200160002060006101000a8154816001600160a01b0302191690836001600160a01b0316021790555086600101965061176a8160010190565b90506116f2565b50505050506117808160010190565b90506116aa565b50909695505050505050565b6117aa6117a536839003830183612dc8565b611999565b7f00000000000000000000000000000000000000000000000000000000000000006001600160a01b0316634692626734604051806040016040528085600001358152602001856020018036038101906118039190612e34565b90526040516001600160e01b031960e085901b16815281516004820152602091820151805160248301529091015160448201526064016000604051808303818588803b15801561185257600080fd5b505af1158015611866573d6000803e3d6000fd5b505050505050565b6000306001600160a01b037f0000000000000000000000000000000000000000000000000000000000000000161480156118c757507f000000000000000000000000000000000000000000000000000000000000000046145b156118f157507f000000000000000000000000000000000000000000000000000000000000000090565b610d3d604080517f8b73c3c69bb8fe3d512ecc4cf759cc79239f7b179b0ffacaa9a75d522b39400f60208201527f0000000000000000000000000000000000000000000000000000000000000000918101919091527f000000000000000000000000000000000000000000000000000000000000000060608201524660808201523060a082015260009060c00160405160208183030381529060405280519060200120905090565b60808101516001600160401b0316158015906119ca5750426001600160401b031681608001516001600160401b0316105b156119e857604051631ab7da6b60e01b815260040160405180910390fd5b6020808201518051600090815260039092526040909120546001600160a01b031680611a275760405163c5723b5160e01b815260040160405180910390fd5b6001600160a01b0381163314611a5057604051634ca8886760e01b815260040160405180910390fd5b6040830151611a5e81611de2565b606080850151855185516020808801516080808b0151604080517f78a69a78c1a55cdff5cbf949580b410778cd9e4d1ecbe6f06a7fa8dc2441b57d958101959095526001600160a01b0390971696840196909652958201939093529384015260a08301526001600160401b031660c0820152600090611af69060e0015b60405160208183030381529060405280519060200120611ea1565b905084606001516001600160a01b0316611b1e82846000015185602001518660400151611ece565b6001600160a01b031614611b4557604051638baa579f60e01b815260040160405180910390fd5b5050505050565b60808101516001600160401b031615801590611b7d5750426001600160401b031681608001516001600160401b0316105b15611b9b57604051631ab7da6b60e01b815260040160405180910390fd5b60208101516040820151611bae81611de2565b6000611c7c7fea02ffba7dcb45f6fc649714d23f315eef12e3b27f9a7735d8d8bf41eb2b1af160001b8560600151866000015186600001518760200151886040015189606001518a60800151805190602001208b60a001518d60800151604051602001611adb9a99989796959493929190998a526001600160a01b0398891660208b015260408a01979097529490961660608801526001600160401b03928316608088015290151560a087015260c086015260e0850193909352610100840152166101208201526101400190565b905083606001516001600160a01b0316611ca482846000015185602001518660400151611ece565b6001600160a01b03161461065657604051638baa579f60e01b815260040160405180910390fd5b60008072184f03e93ff9f4daa797ed6e38ed64bf6a1f0160401b8310611d0a5772184f03e93ff9f4daa797ed6e38ed64bf6a1f0160401b830492506040015b6d04ee2d6d415b85acef81000000008310611d36576d04ee2d6d415b85acef8100000000830492506020015b662386f26fc100008310611d5457662386f26fc10000830492506010015b6305f5e1008310611d6c576305f5e100830492506008015b6127108310611d8057612710830492506004015b60648310611d92576064830492506002015b600a83106109495760010192915050565b60606000611db083611ef6565b604080516020808252818301909252919250600091906020820181803683375050509182525060208101929092525090565b8051602080830151604080850151905160f89490941b6001600160f81b03191692840192909252602183015260418201526000906061016040516020818303038152906040529050600481604051611e3a9190612e50565b9081526040519081900360200190205460ff1615611e6b5760405163333a6a0960e21b815260040160405180910390fd5b6001600482604051611e7d9190612e50565b908152604051908190036020019020805491151560ff199092169190911790555050565b6000610949611eae61186e565b8360405161190160f01b8152600281019290925260228201526042902090565b6000806000611edf87878787611f1e565b91509150611eec81611fe2565b5095945050505050565b600060ff8216601f81111561094957604051632cd44ac360e21b815260040160405180910390fd5b6000807f7fffffffffffffffffffffffffffffff5d576e7357a4501ddfe92f46681b20a0831115611f555750600090506003611fd9565b6040805160008082526020820180845289905260ff881692820192909252606081018690526080810185905260019060a0016020604051602081039080840390855afa158015611fa9573d6000803e3d6000fd5b5050604051601f1901519150506001600160a01b038116611fd257600060019250925050611fd9565b9150600090505b94509492505050565b6000816004811115611ff657611ff6612e62565b03611ffe5750565b600181600481111561201257612012612e62565b0361205f5760405162461bcd60e51b815260206004820152601860248201527f45434453413a20696e76616c6964207369676e617475726500000000000000006044820152606401610dab565b600281600481111561207357612073612e62565b036120c05760405162461bcd60e51b815260206004820152601f60248201527f45434453413a20696e76616c6964207369676e6174757265206c656e677468006044820152606401610dab565b60038160048111156120d4576120d4612e62565b03610dbd5760405162461bcd60e51b815260206004820152602260248201527f45434453413a20696e76616c6964207369676e6174757265202773272076616c604482015261756560f01b6064820152608401610dab565b60006020828403121561213e57600080fd5b5035919050565b60008083601f84011261215757600080fd5b5081356001600160401b0381111561216e57600080fd5b6020830191508360208260051b850101111561218957600080fd5b9250929050565b600080602083850312156121a357600080fd5b82356001600160401b038111156121b957600080fd5b6121c585828601612145565b90969095509350505050565b60005b838110156121ec5781810151838201526020016121d4565b50506000910152565b6000815180845261220d8160208601602086016121d1565b601f01601f19169290920160200192915050565b60208152600061223460208301846121f5565b9392505050565b60006020828403121561224d57600080fd5b81356001600160401b0381111561226357600080fd5b820160e0818503121561223457600080fd5b80356001600160a01b038116811461228c57600080fd5b919050565b6000602082840312156122a357600080fd5b61223482612275565b600080604083850312156122bf57600080fd5b6122c883612275565b946020939093013593505050565b60ff60f81b881681526000602060e0818401526122f660e084018a6121f5565b8381036040850152612308818a6121f5565b606085018990526001600160a01b038816608086015260a0850187905284810360c0860152855180825283870192509083019060005b8181101561235a5783518352928401929184019160010161233e565b50909c9b505050505050505050505050565b8035801515811461228c57600080fd5b6000806040838503121561238f57600080fd5b8235915061239f6020840161236c565b90509250929050565b6020808252825182820181905260009190848201906040850190845b81811015611787578351835292840192918401916001016123c4565b6000806000606084860312156123f557600080fd5b6123fe84612275565b95602085013595506040909401359392505050565b6000610100828403121561242657600080fd5b50919050565b634e487b7160e01b600052603260045260246000fd5b60008235609e1983360301811261245857600080fd5b9190910192915050565b6000808335601e1984360301811261247957600080fd5b8301803591506001600160401b0382111561249357600080fd5b6020019150600681901b360382131561218957600080fd5b600181811c908216806124bf57607f821691505b60208210810361242657634e487b7160e01b600052602260045260246000fd5b634e487b7160e01b600052601160045260246000fd5b81810381811115610949576109496124df565b6000823560be1983360301811261245857600080fd5b600084516125308184602089016121d1565b8083019050601760f91b8082528551612550816001850160208a016121d1565b6001920191820152835161256b8160028401602088016121d1565b0160020195945050505050565b634e487b7160e01b600052604160045260246000fd5b6000808335601e198436030181126125a557600080fd5b8301803591506001600160401b038211156125bf57600080fd5b6020019150600581901b360382131561218957600080fd5b6000600182016125e9576125e96124df565b5060010190565b60405160a081016001600160401b038111828210171561261257612612612578565b60405290565b60405160c081016001600160401b038111828210171561261257612612612578565b604051601f8201601f191681016001600160401b038111828210171561266257612662612578565b604052919050565b60006001600160401b0382111561268357612683612578565b5060051b60200190565b60006040828403121561269f57600080fd5b604051604081018181106001600160401b03821117156126c1576126c1612578565b604052823581526020928301359281019290925250919050565b6000606082840312156126ed57600080fd5b604051606081018181106001600160401b038211171561270f5761270f612578565b604052905080823560ff8116811461272657600080fd5b8082525060208301356020820152604083013560408201525092915050565b600082601f83011261275657600080fd5b8135602061276b6127668361266a565b61263a565b8281526060928302850182019282820191908785111561278a57600080fd5b8387015b858110156127ad576127a089826126db565b845292840192810161278e565b5090979650505050505050565b80356001600160401b038116811461228c57600080fd5b600060a082360312156127e357600080fd5b6127eb6125f0565b823581526020808401356001600160401b038082111561280a57600080fd5b9085019036601f83011261281d57600080fd5b813561282b6127668261266a565b81815260069190911b8301840190848101903683111561284a57600080fd5b938501935b8285101561287357612861368661268d565b8252858201915060408501945061284f565b8086880152505050604086013592508083111561288f57600080fd5b505061289d36828601612745565b6040830152506128af60608401612275565b60608201526128c0608084016127ba565b608082015292915050565b60006020808301818452808551808352604092508286019150828160051b8701018488016000805b8481101561296d57898403603f19018652825180518552880151888501889052805188860181905290890190839060608701905b808310156129585761294482855180518252602090810151910152565b928b019260019290920191908a0190612927565b50978a019795505050918701916001016128f3565b50919998505050505050505050565b600060c0828403121561298e57600080fd5b612996612618565b90506129a182612275565b815260206129b08184016127ba565b818301526129c06040840161236c565b60408301526060830135606083015260808301356001600160401b03808211156129e957600080fd5b818501915085601f8301126129fd57600080fd5b813581811115612a0f57612a0f612578565b612a21601f8201601f1916850161263a565b91508082528684828501011115612a3757600080fd5b808484018584013760008482840101525080608085015250505060a082013560a082015292915050565b600060e08236031215612a7357600080fd5b612a7b6125f0565b8235815260208301356001600160401b03811115612a9857600080fd5b612aa43682860161297c565b602083015250612ab736604085016126db565b6040820152612ac860a08401612275565b60608201526128c060c084016127ba565b6000610949368361297c565b60018060a01b0381511682526001600160401b036020820151166020830152604081015115156040830152606081015160608301526000608082015160c06080850152612b3560c08501826121f5565b60a093840151949093019390935250919050565b602081528151602082015260006020830151604080840152612b6e6060840182612ae5565b949350505050565b600060208284031215612b8857600080fd5b5051919050565b6000808335601e19843603018112612ba657600080fd5b8301803591506001600160401b03821115612bc057600080fd5b602001915060608102360382131561218957600080fd5b600060608284031215612be957600080fd5b61223483836126db565b600060208284031215612c0557600080fd5b612234826127ba565b6000612c1c6127668461266a565b80848252602080830192508560051b850136811115612c3a57600080fd5b855b81811015612c755780356001600160401b03811115612c5b5760008081fd5b612c6736828a0161297c565b865250938201938201612c3c565b50919695505050505050565b602080825282518282018190526000919060409081850190600581811b8701840188860187805b85811015612d2857603f198b85030187528251805185528901518985018990528051898601819052908a0190606081881b870181019190870190855b81811015612d1257605f19898503018352612d00848651612ae5565b948e01949350918d0191600101612ce4565b505050978a019794505091880191600101612ca8565b50919a9950505050505050505050565b60006020808385031215612d4b57600080fd5b82516001600160401b03811115612d6157600080fd5b8301601f81018513612d7257600080fd5b8051612d806127668261266a565b81815260059190911b82018301908381019087831115612d9f57600080fd5b928401925b82841015612dbd57835182529284019290840190612da4565b979650505050505050565b60006101008284031215612ddb57600080fd5b612de36125f0565b82358152612df4846020850161268d565b6020820152612e0684606085016126db565b6040820152612e1760c08401612275565b6060820152612e2860e084016127ba565b60808201529392505050565b600060408284031215612e4657600080fd5b612234838361268d565b600082516124588184602087016121d1565b634e487b7160e01b600052602160045260246000fdfea264697066735822122068b72051ddaff7842899dc3f2ff860bd9956cbc5ed0cb4f641bde669f53c067764736f6c63430008130033","linkReferences":{}},"methodIdentifiers":{"attestByDelegation((bytes32,(address,uint64,bool,bytes32,bytes,uint256),(uint8,bytes32,bytes32),address,uint64))":"3c042715","attestationIdx(bytes32)":"bcac5082","attestations(uint256)":"01daf26b","attester()":"47b0c3b3","eip712Domain()":"84b0196e","enableSchema(bytes32,bool)":"924ee50f","enabledSchemas(bytes32)":"99f46851","getAttestTypeHash()":"12b11a17","getAttester(bytes32)":"10d736d5","getDomainSeparator()":"ed24911d","getEAS()":"65c40b9c","getName()":"17d7de7c","getRevokeTypeHash()":"b83010d3","multiAttestByDelegation((bytes32,(address,uint64,bool,bytes32,bytes,uint256)[],(uint8,bytes32,bytes32)[],address,uint64)[])":"95411525","multiRevokeByDelegation((bytes32,(bytes32,uint256)[],(uint8,bytes32,bytes32)[],address,uint64)[])":"0eabf660","owner()":"8da5cb5b","renounceOwnership()":"715018a6","revokeByDelegation((bytes32,(bytes32,uint256),(uint8,bytes32,bytes32),address,uint64))":"a6d4dbc7","transferOwnership(address)":"f2fde38b","updateAttester(address)":"413d288c","userAttestations(address,bytes32,uint256)":"966a06be","userAuthentication(address,bytes32,uint256)":"f7aafb58","userAuthenticationCount(address,bytes32)":"7b5ddab2","version()":"54fd4d50"},"id":17}